{
  "contractName": "NFTMarketplace",
  "abi": [
    {
      "inputs": [
        {
          "internalType": "address",
          "name": "initialOwner",
          "type": "address"
        }
      ],
      "stateMutability": "nonpayable",
      "type": "constructor"
    },
    {
      "inputs": [
        {
          "internalType": "address",
          "name": "owner",
          "type": "address"
        }
      ],
      "name": "OwnableInvalidOwner",
      "type": "error"
    },
    {
      "inputs": [
        {
          "internalType": "address",
          "name": "account",
          "type": "address"
        }
      ],
      "name": "OwnableUnauthorizedAccount",
      "type": "error"
    },
    {
      "anonymous": false,
      "inputs": [
        {
          "indexed": true,
          "internalType": "address",
          "name": "buyer",
          "type": "address"
        },
        {
          "indexed": true,
          "internalType": "address",
          "name": "nftContract",
          "type": "address"
        },
        {
          "indexed": true,
          "internalType": "uint256",
          "name": "tokenId",
          "type": "uint256"
        },
        {
          "indexed": false,
          "internalType": "uint256",
          "name": "price",
          "type": "uint256"
        }
      ],
      "name": "ItemBought",
      "type": "event"
    },
    {
      "anonymous": false,
      "inputs": [
        {
          "indexed": true,
          "internalType": "address",
          "name": "seller",
          "type": "address"
        },
        {
          "indexed": true,
          "internalType": "address",
          "name": "nftContract",
          "type": "address"
        },
        {
          "indexed": true,
          "internalType": "uint256",
          "name": "tokenId",
          "type": "uint256"
        },
        {
          "indexed": false,
          "internalType": "uint256",
          "name": "price",
          "type": "uint256"
        }
      ],
      "name": "ItemListed",
      "type": "event"
    },
    {
      "anonymous": false,
      "inputs": [
        {
          "indexed": true,
          "internalType": "address",
          "name": "previousOwner",
          "type": "address"
        },
        {
          "indexed": true,
          "internalType": "address",
          "name": "newOwner",
          "type": "address"
        }
      ],
      "name": "OwnershipTransferred",
      "type": "event"
    },
    {
      "inputs": [
        {
          "internalType": "address",
          "name": "",
          "type": "address"
        },
        {
          "internalType": "uint256",
          "name": "",
          "type": "uint256"
        }
      ],
      "name": "listings",
      "outputs": [
        {
          "internalType": "address",
          "name": "seller",
          "type": "address"
        },
        {
          "internalType": "uint256",
          "name": "price",
          "type": "uint256"
        }
      ],
      "stateMutability": "view",
      "type": "function",
      "constant": true
    },
    {
      "inputs": [],
      "name": "owner",
      "outputs": [
        {
          "internalType": "address",
          "name": "",
          "type": "address"
        }
      ],
      "stateMutability": "view",
      "type": "function",
      "constant": true
    },
    {
      "inputs": [],
      "name": "renounceOwnership",
      "outputs": [],
      "stateMutability": "nonpayable",
      "type": "function"
    },
    {
      "inputs": [
        {
          "internalType": "address",
          "name": "newOwner",
          "type": "address"
        }
      ],
      "name": "transferOwnership",
      "outputs": [],
      "stateMutability": "nonpayable",
      "type": "function"
    },
    {
      "inputs": [
        {
          "internalType": "address",
          "name": "nftContract",
          "type": "address"
        },
        {
          "internalType": "uint256",
          "name": "tokenId",
          "type": "uint256"
        },
        {
          "internalType": "uint256",
          "name": "price",
          "type": "uint256"
        }
      ],
      "name": "listItem",
      "outputs": [],
      "stateMutability": "nonpayable",
      "type": "function"
    },
    {
      "inputs": [
        {
          "internalType": "address",
          "name": "nftContract",
          "type": "address"
        },
        {
          "internalType": "uint256",
          "name": "tokenId",
          "type": "uint256"
        }
      ],
      "name": "buyItem",
      "outputs": [],
      "stateMutability": "payable",
      "type": "function",
      "payable": true
    }
  ],
  "bytecode": "0x608060405234801562000010575f80fd5b5060405162000ffe38038062000ffe8339818101604052810190620000369190620001e9565b805f73ffffffffffffffffffffffffffffffffffffffff168173ffffffffffffffffffffffffffffffffffffffff1603620000aa575f6040517f1e4fbdf7000000000000000000000000000000000000000000000000000000008152600401620000a191906200022a565b60405180910390fd5b620000bb81620000c360201b60201c565b505062000245565b5f805f9054906101000a900473ffffffffffffffffffffffffffffffffffffffff169050815f806101000a81548173ffffffffffffffffffffffffffffffffffffffff021916908373ffffffffffffffffffffffffffffffffffffffff1602179055508173ffffffffffffffffffffffffffffffffffffffff168173ffffffffffffffffffffffffffffffffffffffff167f8be0079c531659141344cd1fd0a4f28419497f9722a3daafe3b4186f6b6457e060405160405180910390a35050565b5f80fd5b5f73ffffffffffffffffffffffffffffffffffffffff82169050919050565b5f620001b38262000188565b9050919050565b620001c581620001a7565b8114620001d0575f80fd5b50565b5f81519050620001e381620001ba565b92915050565b5f6020828403121562000201576200020062000184565b5b5f6200021084828501620001d3565b91505092915050565b6200022481620001a7565b82525050565b5f6020820190506200023f5f83018462000219565b92915050565b610dab80620002535f395ff3fe608060405260043610610053575f3560e01c806207df3014610057578063715018a61461009457806389bfd38f146100aa5780638da5cb5b146100d25780639f37092a146100fc578063f2fde38b14610118575b5f80fd5b348015610062575f80fd5b5061007d600480360381019061007891906109fb565b610140565b60405161008b929190610a57565b60405180910390f35b34801561009f575f80fd5b506100a861018a565b005b3480156100b5575f80fd5b506100d060048036038101906100cb9190610a7e565b61019d565b005b3480156100dd575f80fd5b506100e6610461565b6040516100f39190610ace565b60405180910390f35b610116600480360381019061011191906109fb565b610488565b005b348015610123575f80fd5b5061013e60048036038101906101399190610ae7565b610797565b005b6001602052815f5260405f20602052805f5260405f205f9150915050805f015f9054906101000a900473ffffffffffffffffffffffffffffffffffffffff16908060010154905082565b61019261081b565b61019b5f6108a2565b565b3373ffffffffffffffffffffffffffffffffffffffff168373ffffffffffffffffffffffffffffffffffffffff16636352211e846040518263ffffffff1660e01b81526004016101ed9190610b12565b602060405180830381865afa158015610208573d5f803e3d5ffd5b505050506040513d601f19601f8201168201806040525081019061022c9190610b3f565b73ffffffffffffffffffffffffffffffffffffffff1614610282576040517f08c379a000000000000000000000000000000000000000000000000000000000815260040161027990610bc4565b60405180910390fd5b5f81116102c4576040517f08c379a00000000000000000000000000000000000000000000000000000000081526004016102bb90610c2c565b60405180910390fd5b8273ffffffffffffffffffffffffffffffffffffffff166323b872dd3330856040518463ffffffff1660e01b815260040161030193929190610c4a565b5f604051808303815f87803b158015610318575f80fd5b505af115801561032a573d5f803e3d5ffd5b5050505060405180604001604052803373ffffffffffffffffffffffffffffffffffffffff1681526020018281525060015f8573ffffffffffffffffffffffffffffffffffffffff1673ffffffffffffffffffffffffffffffffffffffff1681526020019081526020015f205f8481526020019081526020015f205f820151815f015f6101000a81548173ffffffffffffffffffffffffffffffffffffffff021916908373ffffffffffffffffffffffffffffffffffffffff16021790555060208201518160010155905050818373ffffffffffffffffffffffffffffffffffffffff163373ffffffffffffffffffffffffffffffffffffffff167fd547e933094f12a9159076970143ebe73234e64480317844b0dcb36117116de4846040516104549190610b12565b60405180910390a4505050565b5f805f9054906101000a900473ffffffffffffffffffffffffffffffffffffffff16905090565b5f60015f8473ffffffffffffffffffffffffffffffffffffffff1673ffffffffffffffffffffffffffffffffffffffff1681526020019081526020015f205f8381526020019081526020015f206040518060400160405290815f82015f9054906101000a900473ffffffffffffffffffffffffffffffffffffffff1673ffffffffffffffffffffffffffffffffffffffff1673ffffffffffffffffffffffffffffffffffffffff16815260200160018201548152505090508060200151341015610587576040517f08c379a000000000000000000000000000000000000000000000000000000000815260040161057e90610cef565b60405180910390fd5b5f73ffffffffffffffffffffffffffffffffffffffff16815f015173ffffffffffffffffffffffffffffffffffffffff16036105f8576040517f08c379a00000000000000000000000000000000000000000000000000000000081526004016105ef90610d57565b60405180910390fd5b60015f8473ffffffffffffffffffffffffffffffffffffffff1673ffffffffffffffffffffffffffffffffffffffff1681526020019081526020015f205f8381526020019081526020015f205f8082015f6101000a81549073ffffffffffffffffffffffffffffffffffffffff0219169055600182015f905550508273ffffffffffffffffffffffffffffffffffffffff166323b872dd3033856040518463ffffffff1660e01b81526004016106b093929190610c4a565b5f604051808303815f87803b1580156106c7575f80fd5b505af11580156106d9573d5f803e3d5ffd5b50505050805f015173ffffffffffffffffffffffffffffffffffffffff166108fc826020015190811502906040515f60405180830381858888f19350505050158015610727573d5f803e3d5ffd5b50818373ffffffffffffffffffffffffffffffffffffffff163373ffffffffffffffffffffffffffffffffffffffff167f263223b1dd81e51054a4e6f791d45a4a1ddb4aadcd93a2dfd892615c3fdac187846020015160405161078a9190610b12565b60405180910390a4505050565b61079f61081b565b5f73ffffffffffffffffffffffffffffffffffffffff168173ffffffffffffffffffffffffffffffffffffffff160361080f575f6040517f1e4fbdf70000000000000000000000000000000000000000000000000000000081526004016108069190610ace565b60405180910390fd5b610818816108a2565b50565b610823610963565b73ffffffffffffffffffffffffffffffffffffffff16610841610461565b73ffffffffffffffffffffffffffffffffffffffff16146108a057610864610963565b6040517f118cdaa70000000000000000000000000000000000000000000000000000000081526004016108979190610ace565b60405180910390fd5b565b5f805f9054906101000a900473ffffffffffffffffffffffffffffffffffffffff169050815f806101000a81548173ffffffffffffffffffffffffffffffffffffffff021916908373ffffffffffffffffffffffffffffffffffffffff1602179055508173ffffffffffffffffffffffffffffffffffffffff168173ffffffffffffffffffffffffffffffffffffffff167f8be0079c531659141344cd1fd0a4f28419497f9722a3daafe3b4186f6b6457e060405160405180910390a35050565b5f33905090565b5f80fd5b5f73ffffffffffffffffffffffffffffffffffffffff82169050919050565b5f6109978261096e565b9050919050565b6109a78161098d565b81146109b1575f80fd5b50565b5f813590506109c28161099e565b92915050565b5f819050919050565b6109da816109c8565b81146109e4575f80fd5b50565b5f813590506109f5816109d1565b92915050565b5f8060408385031215610a1157610a1061096a565b5b5f610a1e858286016109b4565b9250506020610a2f858286016109e7565b9150509250929050565b610a428161098d565b82525050565b610a51816109c8565b82525050565b5f604082019050610a6a5f830185610a39565b610a776020830184610a48565b9392505050565b5f805f60608486031215610a9557610a9461096a565b5b5f610aa2868287016109b4565b9350506020610ab3868287016109e7565b9250506040610ac4868287016109e7565b9150509250925092565b5f602082019050610ae15f830184610a39565b92915050565b5f60208284031215610afc57610afb61096a565b5b5f610b09848285016109b4565b91505092915050565b5f602082019050610b255f830184610a48565b92915050565b5f81519050610b398161099e565b92915050565b5f60208284031215610b5457610b5361096a565b5b5f610b6184828501610b2b565b91505092915050565b5f82825260208201905092915050565b7f4e6f7420746865206f776e6572206f662074686520746f6b656e0000000000005f82015250565b5f610bae601a83610b6a565b9150610bb982610b7a565b602082019050919050565b5f6020820190508181035f830152610bdb81610ba2565b9050919050565b7f5072696365206d7573742062652067726561746572207468616e2030000000005f82015250565b5f610c16601c83610b6a565b9150610c2182610be2565b602082019050919050565b5f6020820190508181035f830152610c4381610c0a565b9050919050565b5f606082019050610c5d5f830186610a39565b610c6a6020830185610a39565b610c776040830184610a48565b949350505050565b7f4e6f7420656e6f75676820657468657220746f20636f766572207468652070725f8201527f6963650000000000000000000000000000000000000000000000000000000000602082015250565b5f610cd9602383610b6a565b9150610ce482610c7f565b604082019050919050565b5f6020820190508181035f830152610d0681610ccd565b9050919050565b7f4974656d206e6f74206c697374656400000000000000000000000000000000005f82015250565b5f610d41600f83610b6a565b9150610d4c82610d0d565b602082019050919050565b5f6020820190508181035f830152610d6e81610d35565b905091905056fea2646970667358221220168401587969468ad3af0ed829af7b4b1c4e3b1c0aff8a43232e9c7b36c4c56764736f6c63430008150033",
  "immutableReferences": {},
  "source": "// NFTMarketplace.sol\r\n// SPDX-License-Identifier: MIT\r\npragma solidity ^0.8.0;\r\n\r\nimport \"@openzeppelin/contracts/token/ERC721/IERC721.sol\";\r\nimport \"@openzeppelin/contracts/access/Ownable.sol\";\r\n\r\ncontract NFTMarketplace is Ownable {\r\n    struct Listing {\r\n        address seller;\r\n        uint256 price;\r\n    }\r\n\r\n    mapping(address => mapping(uint256 => Listing)) public listings;\r\n\r\n    event ItemListed(address indexed seller, address indexed nftContract, uint256 indexed tokenId, uint256 price);\r\n    event ItemBought(address indexed buyer, address indexed nftContract, uint256 indexed tokenId, uint256 price);\r\n\r\n    constructor(address initialOwner) Ownable(initialOwner) {}\r\n\r\n    function listItem(address nftContract, uint256 tokenId, uint256 price) public {\r\n        require(IERC721(nftContract).ownerOf(tokenId) == msg.sender, \"Not the owner of the token\");\r\n        require(price > 0, \"Price must be greater than 0\");\r\n\r\n        IERC721(nftContract).transferFrom(msg.sender, address(this), tokenId);\r\n        listings[nftContract][tokenId] = Listing(msg.sender, price);\r\n\r\n        emit ItemListed(msg.sender, nftContract, tokenId, price);\r\n    }\r\n\r\n    function buyItem(address nftContract, uint256 tokenId) public payable {\r\n        Listing memory listing = listings[nftContract][tokenId];\r\n        require(msg.value >= listing.price, \"Not enough ether to cover the price\");\r\n        require(listing.seller != address(0), \"Item not listed\");\r\n\r\n        delete listings[nftContract][tokenId];\r\n        IERC721(nftContract).transferFrom(address(this), msg.sender, tokenId);\r\n        payable(listing.seller).transfer(listing.price);\r\n\r\n        emit ItemBought(msg.sender, nftContract, tokenId, listing.price);\r\n    }\r\n}\r\n",
  "sourcePath": "C:\\Users\\ajerez\\Documents\\research\\blockchain\\my-nft-marketplace-2\\backend\\contracts\\NFTMarketplace.sol",
  "compiler": {
    "name": "solc",
    "version": "0.8.21+commit.d9974bed.Emscripten.clang"
  },
  "schemaVersion": "3.4.16",
  "updatedAt": "2024-06-26T01:23:36.726Z",
  "networkType": "ethereum",
  "devdoc": {
    "errors": {
      "OwnableInvalidOwner(address)": [
        {
          "details": "The owner is not a valid owner account. (eg. `address(0)`)"
        }
      ],
      "OwnableUnauthorizedAccount(address)": [
        {
          "details": "The caller account is not authorized to perform an operation."
        }
      ]
    },
    "kind": "dev",
    "methods": {
      "owner()": {
        "details": "Returns the address of the current owner."
      },
      "renounceOwnership()": {
        "details": "Leaves the contract without owner. It will not be possible to call `onlyOwner` functions. Can only be called by the current owner. NOTE: Renouncing ownership will leave the contract without an owner, thereby disabling any functionality that is only available to the owner."
      },
      "transferOwnership(address)": {
        "details": "Transfers ownership of the contract to a new account (`newOwner`). Can only be called by the current owner."
      }
    },
    "version": 1
  },
  "userdoc": {
    "kind": "user",
    "methods": {},
    "version": 1
  }
}