{
  "contractName": "NFTMarketplace",
  "abi": [
    {
      "inputs": [
        {
          "internalType": "address",
          "name": "initialOwner",
          "type": "address"
        }
      ],
      "stateMutability": "nonpayable",
      "type": "constructor"
    },
    {
      "inputs": [
        {
          "internalType": "address",
          "name": "owner",
          "type": "address"
        }
      ],
      "name": "OwnableInvalidOwner",
      "type": "error"
    },
    {
      "inputs": [
        {
          "internalType": "address",
          "name": "account",
          "type": "address"
        }
      ],
      "name": "OwnableUnauthorizedAccount",
      "type": "error"
    },
    {
      "anonymous": false,
      "inputs": [
        {
          "indexed": true,
          "internalType": "address",
          "name": "buyer",
          "type": "address"
        },
        {
          "indexed": true,
          "internalType": "address",
          "name": "nftContract",
          "type": "address"
        },
        {
          "indexed": true,
          "internalType": "uint256",
          "name": "tokenId",
          "type": "uint256"
        },
        {
          "indexed": false,
          "internalType": "uint256",
          "name": "price",
          "type": "uint256"
        }
      ],
      "name": "ItemBought",
      "type": "event"
    },
    {
      "anonymous": false,
      "inputs": [
        {
          "indexed": true,
          "internalType": "address",
          "name": "seller",
          "type": "address"
        },
        {
          "indexed": true,
          "internalType": "address",
          "name": "nftContract",
          "type": "address"
        },
        {
          "indexed": true,
          "internalType": "uint256",
          "name": "tokenId",
          "type": "uint256"
        },
        {
          "indexed": false,
          "internalType": "uint256",
          "name": "price",
          "type": "uint256"
        }
      ],
      "name": "ItemListed",
      "type": "event"
    },
    {
      "anonymous": false,
      "inputs": [
        {
          "indexed": false,
          "internalType": "string",
          "name": "message",
          "type": "string"
        }
      ],
      "name": "Log",
      "type": "event"
    },
    {
      "anonymous": false,
      "inputs": [
        {
          "indexed": true,
          "internalType": "address",
          "name": "previousOwner",
          "type": "address"
        },
        {
          "indexed": true,
          "internalType": "address",
          "name": "newOwner",
          "type": "address"
        }
      ],
      "name": "OwnershipTransferred",
      "type": "event"
    },
    {
      "inputs": [
        {
          "internalType": "address",
          "name": "",
          "type": "address"
        },
        {
          "internalType": "uint256",
          "name": "",
          "type": "uint256"
        }
      ],
      "name": "listings",
      "outputs": [
        {
          "internalType": "address",
          "name": "seller",
          "type": "address"
        },
        {
          "internalType": "uint256",
          "name": "price",
          "type": "uint256"
        }
      ],
      "stateMutability": "view",
      "type": "function",
      "constant": true
    },
    {
      "inputs": [],
      "name": "owner",
      "outputs": [
        {
          "internalType": "address",
          "name": "",
          "type": "address"
        }
      ],
      "stateMutability": "view",
      "type": "function",
      "constant": true
    },
    {
      "inputs": [],
      "name": "renounceOwnership",
      "outputs": [],
      "stateMutability": "nonpayable",
      "type": "function"
    },
    {
      "inputs": [
        {
          "internalType": "address",
          "name": "newOwner",
          "type": "address"
        }
      ],
      "name": "transferOwnership",
      "outputs": [],
      "stateMutability": "nonpayable",
      "type": "function"
    },
    {
      "inputs": [
        {
          "internalType": "address",
          "name": "nftContract",
          "type": "address"
        },
        {
          "internalType": "uint256",
          "name": "tokenId",
          "type": "uint256"
        },
        {
          "internalType": "uint256",
          "name": "price",
          "type": "uint256"
        }
      ],
      "name": "listItem",
      "outputs": [],
      "stateMutability": "nonpayable",
      "type": "function"
    },
    {
      "inputs": [
        {
          "internalType": "address",
          "name": "nftContract",
          "type": "address"
        },
        {
          "internalType": "uint256",
          "name": "tokenId",
          "type": "uint256"
        }
      ],
      "name": "buyItem",
      "outputs": [],
      "stateMutability": "payable",
      "type": "function",
      "payable": true
    }
  ],
  "bytecode": "0x608060405234801562000010575f80fd5b5060405162001138380380620011388339818101604052810190620000369190620001e9565b805f73ffffffffffffffffffffffffffffffffffffffff168173ffffffffffffffffffffffffffffffffffffffff1603620000aa575f6040517f1e4fbdf7000000000000000000000000000000000000000000000000000000008152600401620000a191906200022a565b60405180910390fd5b620000bb81620000c360201b60201c565b505062000245565b5f805f9054906101000a900473ffffffffffffffffffffffffffffffffffffffff169050815f806101000a81548173ffffffffffffffffffffffffffffffffffffffff021916908373ffffffffffffffffffffffffffffffffffffffff1602179055508173ffffffffffffffffffffffffffffffffffffffff168173ffffffffffffffffffffffffffffffffffffffff167f8be0079c531659141344cd1fd0a4f28419497f9722a3daafe3b4186f6b6457e060405160405180910390a35050565b5f80fd5b5f73ffffffffffffffffffffffffffffffffffffffff82169050919050565b5f620001b38262000188565b9050919050565b620001c581620001a7565b8114620001d0575f80fd5b50565b5f81519050620001e381620001ba565b92915050565b5f6020828403121562000201576200020062000184565b5b5f6200021084828501620001d3565b91505092915050565b6200022481620001a7565b82525050565b5f6020820190506200023f5f83018462000219565b92915050565b610ee580620002535f395ff3fe608060405260043610610053575f3560e01c806207df3014610057578063715018a61461009457806389bfd38f146100aa5780638da5cb5b146100d25780639f37092a146100fc578063f2fde38b14610118575b5f80fd5b348015610062575f80fd5b5061007d60048036038101906100789190610a65565b610140565b60405161008b929190610ac1565b60405180910390f35b34801561009f575f80fd5b506100a861018a565b005b3480156100b5575f80fd5b506100d060048036038101906100cb9190610ae8565b61019d565b005b3480156100dd575f80fd5b506100e66104cb565b6040516100f39190610b38565b60405180910390f35b61011660048036038101906101119190610a65565b6104f2565b005b348015610123575f80fd5b5061013e60048036038101906101399190610b51565b610801565b005b6001602052815f5260405f20602052805f5260405f205f9150915050805f015f9054906101000a900473ffffffffffffffffffffffffffffffffffffffff16908060010154905082565b610192610885565b61019b5f61090c565b565b3373ffffffffffffffffffffffffffffffffffffffff168373ffffffffffffffffffffffffffffffffffffffff16636352211e846040518263ffffffff1660e01b81526004016101ed9190610b7c565b602060405180830381865afa158015610208573d5f803e3d5ffd5b505050506040513d601f19601f8201168201806040525081019061022c9190610ba9565b73ffffffffffffffffffffffffffffffffffffffff1614610282576040517f08c379a000000000000000000000000000000000000000000000000000000000815260040161027990610c2e565b60405180910390fd5b5f81116102c4576040517f08c379a00000000000000000000000000000000000000000000000000000000081526004016102bb90610c96565b60405180910390fd5b7fcf34ef537ac33ee1ac626ca1587a0a7e8e51561e5514f8cb36afa1c5102b3bab6040516102f190610cfe565b60405180910390a18273ffffffffffffffffffffffffffffffffffffffff166323b872dd3330856040518463ffffffff1660e01b815260040161033693929190610d1c565b5f604051808303815f87803b15801561034d575f80fd5b505af115801561035f573d5f803e3d5ffd5b505050507fcf34ef537ac33ee1ac626ca1587a0a7e8e51561e5514f8cb36afa1c5102b3bab60405161039090610d9b565b60405180910390a160405180604001604052803373ffffffffffffffffffffffffffffffffffffffff1681526020018281525060015f8573ffffffffffffffffffffffffffffffffffffffff1673ffffffffffffffffffffffffffffffffffffffff1681526020019081526020015f205f8481526020019081526020015f205f820151815f015f6101000a81548173ffffffffffffffffffffffffffffffffffffffff021916908373ffffffffffffffffffffffffffffffffffffffff16021790555060208201518160010155905050818373ffffffffffffffffffffffffffffffffffffffff163373ffffffffffffffffffffffffffffffffffffffff167fd547e933094f12a9159076970143ebe73234e64480317844b0dcb36117116de4846040516104be9190610b7c565b60405180910390a4505050565b5f805f9054906101000a900473ffffffffffffffffffffffffffffffffffffffff16905090565b5f60015f8473ffffffffffffffffffffffffffffffffffffffff1673ffffffffffffffffffffffffffffffffffffffff1681526020019081526020015f205f8381526020019081526020015f206040518060400160405290815f82015f9054906101000a900473ffffffffffffffffffffffffffffffffffffffff1673ffffffffffffffffffffffffffffffffffffffff1673ffffffffffffffffffffffffffffffffffffffff168152602001600182015481525050905080602001513410156105f1576040517f08c379a00000000000000000000000000000000000000000000000000000000081526004016105e890610e29565b60405180910390fd5b5f73ffffffffffffffffffffffffffffffffffffffff16815f015173ffffffffffffffffffffffffffffffffffffffff1603610662576040517f08c379a000000000000000000000000000000000000000000000000000000000815260040161065990610e91565b60405180910390fd5b60015f8473ffffffffffffffffffffffffffffffffffffffff1673ffffffffffffffffffffffffffffffffffffffff1681526020019081526020015f205f8381526020019081526020015f205f8082015f6101000a81549073ffffffffffffffffffffffffffffffffffffffff0219169055600182015f905550508273ffffffffffffffffffffffffffffffffffffffff166323b872dd3033856040518463ffffffff1660e01b815260040161071a93929190610d1c565b5f604051808303815f87803b158015610731575f80fd5b505af1158015610743573d5f803e3d5ffd5b50505050805f015173ffffffffffffffffffffffffffffffffffffffff166108fc826020015190811502906040515f60405180830381858888f19350505050158015610791573d5f803e3d5ffd5b50818373ffffffffffffffffffffffffffffffffffffffff163373ffffffffffffffffffffffffffffffffffffffff167f263223b1dd81e51054a4e6f791d45a4a1ddb4aadcd93a2dfd892615c3fdac18784602001516040516107f49190610b7c565b60405180910390a4505050565b610809610885565b5f73ffffffffffffffffffffffffffffffffffffffff168173ffffffffffffffffffffffffffffffffffffffff1603610879575f6040517f1e4fbdf70000000000000000000000000000000000000000000000000000000081526004016108709190610b38565b60405180910390fd5b6108828161090c565b50565b61088d6109cd565b73ffffffffffffffffffffffffffffffffffffffff166108ab6104cb565b73ffffffffffffffffffffffffffffffffffffffff161461090a576108ce6109cd565b6040517f118cdaa70000000000000000000000000000000000000000000000000000000081526004016109019190610b38565b60405180910390fd5b565b5f805f9054906101000a900473ffffffffffffffffffffffffffffffffffffffff169050815f806101000a81548173ffffffffffffffffffffffffffffffffffffffff021916908373ffffffffffffffffffffffffffffffffffffffff1602179055508173ffffffffffffffffffffffffffffffffffffffff168173ffffffffffffffffffffffffffffffffffffffff167f8be0079c531659141344cd1fd0a4f28419497f9722a3daafe3b4186f6b6457e060405160405180910390a35050565b5f33905090565b5f80fd5b5f73ffffffffffffffffffffffffffffffffffffffff82169050919050565b5f610a01826109d8565b9050919050565b610a11816109f7565b8114610a1b575f80fd5b50565b5f81359050610a2c81610a08565b92915050565b5f819050919050565b610a4481610a32565b8114610a4e575f80fd5b50565b5f81359050610a5f81610a3b565b92915050565b5f8060408385031215610a7b57610a7a6109d4565b5b5f610a8885828601610a1e565b9250506020610a9985828601610a51565b9150509250929050565b610aac816109f7565b82525050565b610abb81610a32565b82525050565b5f604082019050610ad45f830185610aa3565b610ae16020830184610ab2565b9392505050565b5f805f60608486031215610aff57610afe6109d4565b5b5f610b0c86828701610a1e565b9350506020610b1d86828701610a51565b9250506040610b2e86828701610a51565b9150509250925092565b5f602082019050610b4b5f830184610aa3565b92915050565b5f60208284031215610b6657610b656109d4565b5b5f610b7384828501610a1e565b91505092915050565b5f602082019050610b8f5f830184610ab2565b92915050565b5f81519050610ba381610a08565b92915050565b5f60208284031215610bbe57610bbd6109d4565b5b5f610bcb84828501610b95565b91505092915050565b5f82825260208201905092915050565b7f4e6f7420746865206f776e6572206f662074686520746f6b656e0000000000005f82015250565b5f610c18601a83610bd4565b9150610c2382610be4565b602082019050919050565b5f6020820190508181035f830152610c4581610c0c565b9050919050565b7f5072696365206d7573742062652067726561746572207468616e2030000000005f82015250565b5f610c80601c83610bd4565b9150610c8b82610c4c565b602082019050919050565b5f6020820190508181035f830152610cad81610c74565b9050919050565b7f5472616e7366657220617474656d7074000000000000000000000000000000005f82015250565b5f610ce8601083610bd4565b9150610cf382610cb4565b602082019050919050565b5f6020820190508181035f830152610d1581610cdc565b9050919050565b5f606082019050610d2f5f830186610aa3565b610d3c6020830185610aa3565b610d496040830184610ab2565b949350505050565b7f5472616e736665722073756363657373000000000000000000000000000000005f82015250565b5f610d85601083610bd4565b9150610d9082610d51565b602082019050919050565b5f6020820190508181035f830152610db281610d79565b9050919050565b7f4e6f7420656e6f75676820657468657220746f20636f766572207468652070725f8201527f6963650000000000000000000000000000000000000000000000000000000000602082015250565b5f610e13602383610bd4565b9150610e1e82610db9565b604082019050919050565b5f6020820190508181035f830152610e4081610e07565b9050919050565b7f4974656d206e6f74206c697374656400000000000000000000000000000000005f82015250565b5f610e7b600f83610bd4565b9150610e8682610e47565b602082019050919050565b5f6020820190508181035f830152610ea881610e6f565b905091905056fea26469706673582212204d59f83af032d5407f9cb4206151b68cdf3326f01c7897db282dabb8aba3c32064736f6c63430008150033",
  "immutableReferences": {},
  "source": "// NFTMarketplace.sol\r\n// SPDX-License-Identifier: MIT\r\npragma solidity ^0.8.0;\r\n\r\nimport \"@openzeppelin/contracts/token/ERC721/IERC721.sol\";\r\nimport \"@openzeppelin/contracts/access/Ownable.sol\";\r\n\r\ncontract NFTMarketplace is Ownable {\r\n    struct Listing {\r\n        address seller;\r\n        uint256 price;\r\n    }\r\n\r\n    mapping(address => mapping(uint256 => Listing)) public listings;\r\n\r\n    event ItemListed(address indexed seller, address indexed nftContract, uint256 indexed tokenId, uint256 price);\r\n    event ItemBought(address indexed buyer, address indexed nftContract, uint256 indexed tokenId, uint256 price);\r\n    event Log(string message);\r\n\r\n    constructor(address initialOwner) Ownable(initialOwner) {}\r\n\r\n    function listItem(address nftContract, uint256 tokenId, uint256 price) public {\r\n        require(IERC721(nftContract).ownerOf(tokenId) == msg.sender, \"Not the owner of the token\");\r\n        require(price > 0, \"Price must be greater than 0\");\r\n\r\n        emit Log(\"Transfer attempt\");\r\n        IERC721(nftContract).transferFrom(msg.sender, address(this), tokenId);\r\n        emit Log(\"Transfer success\");\r\n\r\n        listings[nftContract][tokenId] = Listing(msg.sender, price);\r\n\r\n        emit ItemListed(msg.sender, nftContract, tokenId, price);\r\n    }\r\n\r\n    function buyItem(address nftContract, uint256 tokenId) public payable {\r\n        Listing memory listing = listings[nftContract][tokenId];\r\n        require(msg.value >= listing.price, \"Not enough ether to cover the price\");\r\n        require(listing.seller != address(0), \"Item not listed\");\r\n\r\n        delete listings[nftContract][tokenId];\r\n        IERC721(nftContract).transferFrom(address(this), msg.sender, tokenId);\r\n        payable(listing.seller).transfer(listing.price);\r\n\r\n        emit ItemBought(msg.sender, nftContract, tokenId, listing.price);\r\n    }\r\n}\r\n",
  "sourcePath": "C:\\Users\\ajerez\\Documents\\research\\blockchain\\my-nft-marketplace-2\\backend\\contracts\\NFTMarketplace.sol",
  "compiler": {
    "name": "solc",
    "version": "0.8.21+commit.d9974bed.Emscripten.clang"
  },
  "schemaVersion": "3.4.16",
  "updatedAt": "2024-07-05T15:49:52.038Z",
  "networkType": "ethereum",
  "devdoc": {
    "errors": {
      "OwnableInvalidOwner(address)": [
        {
          "details": "The owner is not a valid owner account. (eg. `address(0)`)"
        }
      ],
      "OwnableUnauthorizedAccount(address)": [
        {
          "details": "The caller account is not authorized to perform an operation."
        }
      ]
    },
    "kind": "dev",
    "methods": {
      "owner()": {
        "details": "Returns the address of the current owner."
      },
      "renounceOwnership()": {
        "details": "Leaves the contract without owner. It will not be possible to call `onlyOwner` functions. Can only be called by the current owner. NOTE: Renouncing ownership will leave the contract without an owner, thereby disabling any functionality that is only available to the owner."
      },
      "transferOwnership(address)": {
        "details": "Transfers ownership of the contract to a new account (`newOwner`). Can only be called by the current owner."
      }
    },
    "version": 1
  },
  "userdoc": {
    "kind": "user",
    "methods": {},
    "version": 1
  }
}